{
  "contractName": "FIFA",
  "abi": [
    {
      "inputs": [
        {
          "internalType": "uint8",
          "name": "gk",
          "type": "uint8"
        },
        {
          "internalType": "uint8",
          "name": "def",
          "type": "uint8"
        },
        {
          "internalType": "uint8",
          "name": "mid",
          "type": "uint8"
        },
        {
          "internalType": "uint8",
          "name": "fwd",
          "type": "uint8"
        }
      ],
      "payable": false,
      "stateMutability": "nonpayable",
      "type": "constructor"
    },
    {
      "constant": true,
      "inputs": [],
      "name": "state",
      "outputs": [
        {
          "internalType": "enum FIFA.Phase",
          "name": "",
          "type": "uint8"
        }
      ],
      "payable": false,
      "stateMutability": "view",
      "type": "function"
    },
    {
      "constant": false,
      "inputs": [
        {
          "internalType": "enum FIFA.Phase",
          "name": "x",
          "type": "uint8"
        }
      ],
      "name": "changeState",
      "outputs": [],
      "payable": false,
      "stateMutability": "nonpayable",
      "type": "function"
    },
    {
      "constant": false,
      "inputs": [
        {
          "internalType": "uint8",
          "name": "category",
          "type": "uint8"
        },
        {
          "internalType": "address",
          "name": "voter",
          "type": "address"
        }
      ],
      "name": "register",
      "outputs": [],
      "payable": false,
      "stateMutability": "nonpayable",
      "type": "function"
    },
    {
      "constant": false,
      "inputs": [
        {
          "internalType": "uint8",
          "name": "gk",
          "type": "uint8"
        },
        {
          "internalType": "uint8",
          "name": "def",
          "type": "uint8"
        },
        {
          "internalType": "uint8",
          "name": "mid",
          "type": "uint8"
        },
        {
          "internalType": "uint8",
          "name": "fwd",
          "type": "uint8"
        }
      ],
      "name": "vote",
      "outputs": [],
      "payable": false,
      "stateMutability": "nonpayable",
      "type": "function"
    },
    {
      "constant": true,
      "inputs": [],
      "name": "voterCount",
      "outputs": [
        {
          "internalType": "uint256",
          "name": "i",
          "type": "uint256"
        }
      ],
      "payable": false,
      "stateMutability": "view",
      "type": "function"
    },
    {
      "constant": true,
      "inputs": [],
      "name": "reqWinner",
      "outputs": [
        {
          "internalType": "uint8",
          "name": "winningGK",
          "type": "uint8"
        },
        {
          "internalType": "uint8",
          "name": "winningDef",
          "type": "uint8"
        },
        {
          "internalType": "uint8",
          "name": "winningMid",
          "type": "uint8"
        },
        {
          "internalType": "uint8",
          "name": "winningFwd",
          "type": "uint8"
        }
      ],
      "payable": false,
      "stateMutability": "view",
      "type": "function"
    },
    {
      "constant": false,
      "inputs": [],
      "name": "pickShortlist",
      "outputs": [],
      "payable": false,
      "stateMutability": "nonpayable",
      "type": "function"
    }
  ],
  "bytecode": "0x60806040526004600860006101000a81548160ff021916908360048111156200002457fe5b02179055503480156200003657600080fd5b50604051620016f5380380620016f5833981810160405260808110156200005c57600080fd5b8101908080519060200190929190805190602001909291908051906020019092919080519060200190929190505050336000806101000a81548173ffffffffffffffffffffffffffffffffffffffff021916908373ffffffffffffffffffffffffffffffffffffffff16021790555060028060008060009054906101000a900473ffffffffffffffffffffffffffffffffffffffff1673ffffffffffffffffffffffffffffffffffffffff1673ffffffffffffffffffffffffffffffffffffffff1681526020019081526020016000206000018190555060038460ff16116200014457600080fd5b60038360ff16116200015557600080fd5b60038260ff16116200016657600080fd5b60038160ff16116200017757600080fd5b8360ff166003816200018a9190620001f6565b508260ff166004816200019e9190620001f6565b508160ff16600581620001b29190620001f6565b508060ff16600681620001c69190620001f6565b506001600860006101000a81548160ff02191690836004811115620001e757fe5b02179055505050505062000289565b81548183558181111562000226576006028160060283600052602060002091820191016200022591906200022b565b5b505050565b6200028691905b80821115620002825760008082016000905560018201600090556002820160009055600382016000905560048201600090556005820160006101000a81549060ff02191690555060060162000232565b5090565b90565b61145c80620002996000396000f3fe608060405234801561001057600080fd5b506004361061007d5760003560e01c8063508b30c91161005b578063508b30c9146100db578063b27a69dc14610126578063c19d93fb14610177578063e004e7ab146101a35761007d565b8063268f115314610082578063306580e5146100b357806342169e48146100bd575b600080fd5b6100b16004803603602081101561009857600080fd5b81019080803560ff1690602001909291905050506101fb565b005b6100bb6102ab565b005b6100c56105a5565b6040518082815260200191505060405180910390f35b6100e36105af565b604051808560ff1660ff1681526020018460ff1660ff1681526020018360ff1660ff1681526020018260ff1660ff16815260200194505050505060405180910390f35b6101756004803603604081101561013c57600080fd5b81019080803560ff169060200190929190803573ffffffffffffffffffffffffffffffffffffffff169060200190929190505050610807565b005b61017f610c19565b6040518082600481111561018f57fe5b60ff16815260200191505060405180910390f35b6101f9600480360360808110156101b957600080fd5b81019080803560ff169060200190929190803560ff169060200190929190803560ff169060200190929190803560ff169060200190929190505050610c2c565b005b6000809054906101000a900473ffffffffffffffffffffffffffffffffffffffff1673ffffffffffffffffffffffffffffffffffffffff163373ffffffffffffffffffffffffffffffffffffffff161461025457600080fd5b600860009054906101000a900460ff16600481111561026f57fe5b81600481111561027b57fe5b1161028557600080fd5b80600860006101000a81548160ff021916908360048111156102a357fe5b021790555050565b60028060048111156102b957fe5b600860009054906101000a900460ff1660048111156102d457fe5b146102de57600080fd5b600160036000815481106102ee57fe5b906000526020600020906006020160050160006101000a81548160ff0219169083151502179055506001600360018154811061032657fe5b906000526020600020906006020160050160006101000a81548160ff0219169083151502179055506001600360028154811061035e57fe5b906000526020600020906006020160050160006101000a81548160ff0219169083151502179055506001600460008154811061039657fe5b906000526020600020906006020160050160006101000a81548160ff021916908315150217905550600160046001815481106103ce57fe5b906000526020600020906006020160050160006101000a81548160ff0219169083151502179055506001600460028154811061040657fe5b906000526020600020906006020160050160006101000a81548160ff0219169083151502179055506001600560008154811061043e57fe5b906000526020600020906006020160050160006101000a81548160ff0219169083151502179055506001600560018154811061047657fe5b906000526020600020906006020160050160006101000a81548160ff021916908315150217905550600160056002815481106104ae57fe5b906000526020600020906006020160050160006101000a81548160ff021916908315150217905550600160066000815481106104e657fe5b906000526020600020906006020160050160006101000a81548160ff0219169083151502179055506001600660018154811061051e57fe5b906000526020600020906006020160050160006101000a81548160ff0219169083151502179055506001600660028154811061055657fe5b906000526020600020906006020160050160006101000a81548160ff0219169083151502179055506003600860006101000a81548160ff0219169083600481111561059d57fe5b021790555050565b6000600754905090565b60008060008060048060048111156105c357fe5b600860009054906101000a900460ff1660048111156105de57fe5b146105e857600080fd5b600080905060008090506000809050600080905060008090505b6003805490508160ff161015610670578460038260ff168154811061062357fe5b90600052602060002090600602016004015411156106635760038160ff168154811061064b57fe5b90600052602060002090600602016004015494508099505b8080600101915050610602565b5060008090505b6004805490508160ff1610156106e5578360048260ff168154811061069857fe5b90600052602060002090600602016004015411156106d85760048160ff16815481106106c057fe5b90600052602060002090600602016004015493508098505b8080600101915050610677565b5060008090505b6005805490508160ff16101561075a578260058260ff168154811061070d57fe5b906000526020600020906006020160040154111561074d5760058160ff168154811061073557fe5b90600052602060002090600602016004015492508097505b80806001019150506106ec565b5060008090505b6006805490508160ff1610156107cf578160068260ff168154811061078257fe5b90600052602060002090600602016004015411156107c25760068160ff16815481106107aa57fe5b90600052602060002090600602016004015491508096505b8080600101915050610761565b5060018410156107db57fe5b60018310156107e657fe5b60018210156107f157fe5b60018110156107fc57fe5b505050505090919293565b600180600481111561081557fe5b600860009054906101000a900460ff16600481111561083057fe5b1461083a57600080fd5b6000809054906101000a900473ffffffffffffffffffffffffffffffffffffffff1673ffffffffffffffffffffffffffffffffffffffff163373ffffffffffffffffffffffffffffffffffffffff161461089357600080fd5b600260008373ffffffffffffffffffffffffffffffffffffffff1673ffffffffffffffffffffffffffffffffffffffff16815260200190815260200160002060010160009054906101000a900460ff16156108ed57600080fd5b60076000815480929190600101919050555060008360ff1614156109c8576004600260008473ffffffffffffffffffffffffffffffffffffffff1673ffffffffffffffffffffffffffffffffffffffff168152602001908152602001600020600001819055506001600260008473ffffffffffffffffffffffffffffffffffffffff1673ffffffffffffffffffffffffffffffffffffffff1681526020019081526020016000206002016000600481106109a357fe5b602091828204019190066101000a81548160ff021916908360ff160217905550610c14565b60018360ff161415610a91576003600260008473ffffffffffffffffffffffffffffffffffffffff1673ffffffffffffffffffffffffffffffffffffffff168152602001908152602001600020600001819055506001600260008473ffffffffffffffffffffffffffffffffffffffff1673ffffffffffffffffffffffffffffffffffffffff168152602001908152602001600020600201600160048110610a6c57fe5b602091828204019190066101000a81548160ff021916908360ff160217905550610c13565b60028360ff161415610b595760028060008473ffffffffffffffffffffffffffffffffffffffff1673ffffffffffffffffffffffffffffffffffffffff168152602001908152602001600020600001819055506001600260008473ffffffffffffffffffffffffffffffffffffffff1673ffffffffffffffffffffffffffffffffffffffff168152602001908152602001600020600201600260048110610b3457fe5b602091828204019190066101000a81548160ff021916908360ff160217905550610c12565b6001600260008473ffffffffffffffffffffffffffffffffffffffff1673ffffffffffffffffffffffffffffffffffffffff168152602001908152602001600020600001819055506001600260008473ffffffffffffffffffffffffffffffffffffffff1673ffffffffffffffffffffffffffffffffffffffff168152602001908152602001600020600201600360048110610bf157fe5b602091828204019190066101000a81548160ff021916908360ff1602179055505b5b5b505050565b600860009054906101000a900460ff1681565b6003806004811115610c3a57fe5b600860009054906101000a900460ff166004811115610c5557fe5b14610c5f57600080fd5b610c676113aa565b600260003373ffffffffffffffffffffffffffffffffffffffff1673ffffffffffffffffffffffffffffffffffffffff16815260200190815260200160002060405180610100016040529081600082015481526020016001820160009054906101000a900460ff161515151581526020016001820160019054906101000a900460ff1615151515815260200160028201600480602002604051908101604052809291908260048015610d54576020028201916000905b82829054906101000a900460ff1660ff1681526020019060010190602082600001049283019260010382029150808411610d1d5790505b505050505081526020016003820160009054906101000a900460ff1660ff1660ff1681526020016003820160019054906101000a900460ff1660ff1660ff1681526020016003820160029054906101000a900460ff1660ff1660ff1681526020016003820160039054906101000a900460ff1660ff1660ff16815250509050806020015115610de257600080fd5b6001151560038760ff1681548110610df657fe5b906000526020600020906006020160050160009054906101000a900460ff16151514610e2157600080fd5b6001151560048660ff1681548110610e3557fe5b906000526020600020906006020160050160009054906101000a900460ff16151514610e6057600080fd5b6001151560058560ff1681548110610e7457fe5b906000526020600020906006020160050160009054906101000a900460ff16151514610e9f57600080fd5b6001151560068460ff1681548110610eb357fe5b906000526020600020906006020160050160009054906101000a900460ff16151514610ede57600080fd5b6003805490508660ff1610610ef257600080fd5b6004805490508560ff1610610f0657600080fd5b6005805490508460ff1610610f1a57600080fd5b6006805490508360ff1610610f2e57600080fd5b600181602001901515908115158152505085816080019060ff16908160ff1681525050848160a0019060ff16908160ff1681525050838160c0019060ff16908160ff1681525050828160e0019060ff16908160ff1681525050600081600001519050816000015160038860ff1681548110610fa557fe5b906000526020600020906006020160040160008282540192505081905550816000015160048760ff1681548110610fd857fe5b906000526020600020906006020160040160008282540192505081905550816000015160058660ff168154811061100b57fe5b906000526020600020906006020160040160008282540192505081905550816000015160068560ff168154811061103e57fe5b906000526020600020906006020160040160008282540192505081905550600481141561112e5760038760ff168154811061107557fe5b90600052602060002090600602016000016000815480929190600101919050555060048660ff16815481106110a657fe5b90600052602060002090600602016000016000815480929190600101919050555060058560ff16815481106110d757fe5b90600052602060002090600602016000016000815480929190600101919050555060068460ff168154811061110857fe5b9060005260206000209060060201600001600081548092919060010191905055506113a1565b6003826000015114156112045760038760ff168154811061114b57fe5b90600052602060002090600602016001016000815480929190600101919050555060048660ff168154811061117c57fe5b90600052602060002090600602016001016000815480929190600101919050555060058560ff16815481106111ad57fe5b90600052602060002090600602016001016000815480929190600101919050555060068460ff16815481106111de57fe5b9060005260206000209060060201600101600081548092919060010191905055506113a0565b6002826000015114156112da5760038760ff168154811061122157fe5b90600052602060002090600602016002016000815480929190600101919050555060048660ff168154811061125257fe5b90600052602060002090600602016002016000815480929190600101919050555060058560ff168154811061128357fe5b90600052602060002090600602016002016000815480929190600101919050555060068460ff16815481106112b457fe5b90600052602060002090600602016002016000815480929190600101919050555061139f565b60038760ff16815481106112ea57fe5b90600052602060002090600602016002016000815480929190600101919050555060048660ff168154811061131b57fe5b90600052602060002090600602016002016000815480929190600101919050555060058560ff168154811061134c57fe5b90600052602060002090600602016002016000815480929190600101919050555060068460ff168154811061137d57fe5b9060005260206000209060060201600201600081548092919060010191905055505b5b5b50505050505050565b604051806101000160405280600081526020016000151581526020016000151581526020016113d7611405565b8152602001600060ff168152602001600060ff168152602001600060ff168152602001600060ff1681525090565b604051806080016040528060049060208202803883398082019150509050509056fea265627a7a7231582043af4321a0970a3e7fc3e40fedeaa5d4aefedb42271f8f89c101a5e357428e5764736f6c634300050c0032",
  "source": "pragma solidity ^0.5.2;\r\ncontract FIFA {\r\n    //Majd Abu ghazaleh\r\n    \r\n    struct Voter {                     \r\n        uint weight;\r\n        bool voted;\r\n        bool panel;\r\n        uint8[4] category; //[0]: coach, [1]: journalist , [2]: player, [3]: fan\r\n        uint8 gVote;   //best goalkeeper vote (choice between 1-5)\r\n        uint8 dVote;   //best defender vote (choice between 1-10)\r\n        uint8 mVote;   //best midfielder vote (choice between 1-10)\r\n        uint8 fVote;   //best forward vote (choice between 1-10)\r\n    }   \r\n    \r\n    struct Nominee {                     \r\n        uint coach_votes;\r\n        uint journalist_votes;\r\n        uint player_votes;\r\n        uint fan_votes;\r\n        uint voteCount;\r\n        bool shortlist;\r\n    }    \r\n    \r\n    address coordinator;\r\n    address panelMember;\r\n    mapping(address => Voter) voters;  \r\n    Nominee[] gkNominees;\r\n    Nominee[] defNominees;\r\n    Nominee[] midNominees;\r\n    Nominee[] fwdNominees;\r\n\r\n    uint number_of_voters;\r\n\r\n    enum Phase {Init, Regs, Shortlist, Vote, Done}  //{0,1,2,3,4}\r\n    Phase public state = Phase.Done; \r\n\r\n\r\n    \r\n       //modifiers\r\n    modifier validPhase(Phase reqPhase) \r\n    { require(state == reqPhase); \r\n      _; \r\n    } \r\n    \r\n    modifier onlyCoordinator() \r\n     {require(msg.sender == coordinator);\r\n      _;\r\n     }\r\n\r\n    modifier onlyPanelMember() \r\n     {require(msg.sender == panelMember);\r\n      _;\r\n     }\r\n     \r\n\r\n    \r\n        \r\n    constructor (uint8 gk,uint8 def,uint8 mid,uint8 fwd) public  {  \r\n        coordinator = msg.sender;\r\n        voters[coordinator].weight = 2;\r\n        \r\n        require (gk  > 3 ); \r\n        require (def > 3 ); \r\n        require (mid > 3 ); \r\n        require (fwd > 3 ); \r\n\r\n        \r\n        gkNominees.length = gk;\r\n        defNominees.length = def;\r\n        midNominees.length = mid;\r\n        fwdNominees.length = fwd;\r\n        state = Phase.Regs;\r\n    }\r\n\r\n    \r\n     function changeState(Phase x) onlyCoordinator public {\r\n        \r\n        require (x > state );\r\n       \r\n        state = x;\r\n     }\r\n    \r\n    function register(uint8 category,address voter) public validPhase(Phase.Regs) onlyCoordinator {\r\n       \r\n        require (! voters[voter].voted);\r\n        number_of_voters++;\r\n        \r\n        if(category == 0){              //Coach\r\n            voters[voter].weight = 4;\r\n            voters[voter].category[0] = 1;\r\n        }\r\n        \r\n        else if(category ==1){          //Journalist\r\n            voters[voter].weight = 3;\r\n            voters[voter].category[1] = 1;\r\n        }        \r\n        \r\n        else if(category ==2){          //Player\r\n            voters[voter].weight = 2;\r\n            voters[voter].category[2] = 1;\r\n        }\r\n        \r\n        else{                           //Fan\r\n            voters[voter].weight = 1;\r\n            voters[voter].category[3] = 1;\r\n        }\r\n        \r\n        \r\n    }\r\n\r\n   \r\n    function vote(uint8 gk,uint8 def,uint8 mid,uint8 fwd) public validPhase(Phase.Vote)  { //vote restricted to shortlist members \r\n      \r\n        Voter memory sender = voters[msg.sender];\r\n       // panelMember = msg.sender;\r\n        \r\n        require (!sender.voted);\r\n        require (gkNominees[gk].shortlist==true); \r\n        require (defNominees[def].shortlist==true);  \r\n        require (midNominees[mid].shortlist==true);  \r\n        require (fwdNominees[fwd].shortlist==true); \r\n        \r\n        require (gk <  gkNominees.length); \r\n        require (def <  defNominees.length); \r\n        require (mid <  midNominees.length); \r\n        require (fwd <  fwdNominees.length); \r\n\r\n        \r\n        sender.voted = true;\r\n        sender.gVote = gk;   \r\n        sender.dVote = def;  \r\n        sender.mVote = mid;  \r\n        sender.fVote = fwd;  \r\n        \r\n        uint source= sender.weight;\r\n        \r\n        gkNominees[gk].voteCount += sender.weight;\r\n        defNominees[def].voteCount += sender.weight;\r\n        midNominees[mid].voteCount += sender.weight;\r\n        fwdNominees[fwd].voteCount += sender.weight;\r\n        \r\n        \r\n        if(source==4){\r\n            gkNominees[gk].coach_votes++;\r\n            defNominees[def].coach_votes++;\r\n            midNominees[mid].coach_votes++;\r\n            fwdNominees[fwd].coach_votes++;\r\n        }\r\n        \r\n        else if(sender.weight==3){\r\n            gkNominees[gk].journalist_votes++;\r\n            defNominees[def].journalist_votes++;\r\n            midNominees[mid].journalist_votes++;\r\n            fwdNominees[fwd].journalist_votes++;\r\n        }\r\n        else if(sender.weight==2){\r\n            gkNominees[gk].player_votes++;\r\n            defNominees[def].player_votes++;\r\n            midNominees[mid].player_votes++;\r\n            fwdNominees[fwd].player_votes++;\r\n        }\r\n        \r\n        else {\r\n            gkNominees[gk].player_votes++;\r\n            defNominees[def].player_votes++;\r\n            midNominees[mid].player_votes++;\r\n            fwdNominees[fwd].player_votes++;\r\n        }\r\n    }\r\n    \r\n    function voterCount()public view returns(uint i){\r\n        i=number_of_voters;\r\n    }\r\n    \r\n\r\n\r\n    function reqWinner() public validPhase(Phase.Done) view returns (uint8 winningGK,uint8 winningDef,uint8 winningMid,uint8 winningFwd) {\r\n       \r\n        uint256 winningGkVoteCount = 0;\r\n        uint256 winningDefVoteCount = 0;\r\n        uint256 winningMidVoteCount = 0;\r\n        uint256 winningFwdVoteCount = 0;\r\n        for (uint8 prop = 0; prop < gkNominees.length; prop++) \r\n            if (gkNominees[prop].voteCount > winningGkVoteCount) {\r\n                winningGkVoteCount = gkNominees[prop].voteCount;\r\n                winningGK = prop;\r\n            }\r\n            \r\n        for (uint8 prop = 0; prop < defNominees.length; prop++) \r\n            if (defNominees[prop].voteCount > winningDefVoteCount) {\r\n                winningDefVoteCount = defNominees[prop].voteCount;\r\n                winningDef = prop;\r\n            }\r\n            \r\n        for (uint8 prop = 0; prop < midNominees.length; prop++) \r\n            if (midNominees[prop].voteCount > winningMidVoteCount) {\r\n                winningMidVoteCount = midNominees[prop].voteCount;\r\n                winningMid = prop;\r\n            }\r\n            \r\n        for (uint8 prop = 0; prop < fwdNominees.length; prop++) \r\n            if (fwdNominees[prop].voteCount > winningFwdVoteCount) {\r\n                winningFwdVoteCount = fwdNominees[prop].voteCount;\r\n                winningFwd = prop;\r\n            }\r\n       assert(winningGkVoteCount>=1);\r\n       assert(winningDefVoteCount>=1);\r\n       assert(winningMidVoteCount>=1);\r\n       assert(winningFwdVoteCount>=1);\r\n    }\r\n    \r\n   \r\n    function pickShortlist()public validPhase(Phase.Shortlist)  {  //shortlist pre_determined by coordinator\r\n        gkNominees[0].shortlist=true;\r\n        gkNominees[1].shortlist=true;\r\n        gkNominees[2].shortlist=true;\r\n       \r\n        defNominees[0].shortlist=true;\r\n        defNominees[1].shortlist=true;\r\n        defNominees[2].shortlist=true;\r\n        \r\n        midNominees[0].shortlist=true;\r\n        midNominees[1].shortlist=true;\r\n        midNominees[2].shortlist=true;\r\n        \r\n        fwdNominees[0].shortlist=true;\r\n        fwdNominees[1].shortlist=true;\r\n        fwdNominees[2].shortlist=true;\r\n        \r\n        state = Phase.Vote;\r\n\r\n    }\r\n    \r\n\r\n\r\n \r\n  \r\n\r\n}\r\n",
  "sourcePath": "C:/Users/magd/Documents/Buffalo/Fall 2019/526/majdhish_p1_part2_fifa/fifa/fifa_contract/contracts/FIFA.sol",
  "compiler": {
    "name": "solc",
    "version": "0.5.12+commit.7709ece9.Emscripten.clang"
  },
  "schemaVersion": "3.0.19",
  "updatedAt": "2019-12-06T20:26:36.486Z",
  "networkType": "ethereum",
  "devdoc": {
    "methods": {}
  },
  "userdoc": {
    "methods": {}
  }
}